:020000040800F2
:1000000000280020D50C00081D0C0008290C000851
:100010002F0C0008350C00083B0C00080000000005
:10002000000000000000000000000000410C00087B
:100030004D0C000800000000590C0008650C000879
:100040001D0D00081D0D00081D0D00081D0D0008E8
:100050001D0D00081D0D00081D0D00081D0D0008D8
:100060001D0D00081D0D00081D0D00081D0D0008C8
:100070001D0D00081D0D00081D0D00081D0D0008B8
:100080001D0D00081D0D00081D0D00081D0D0008A8
:100090001D0D00081D0D00081D0D00081D0D000898
:1000A0001D0D00081D0D00081D0D00081D0D000888
:1000B0001D0D00081D0D0008000000001D0D0008AA
:1000C0001D0D000800000000000000001D0D0008CC
:1000D000000000001D0D00081D0D000800000000BC
:1000E0001D0D00081D0D00081D0D0008000000007A
:1000F0000000000000000000000000000000000000
:0C01000000000000000000005FF808F1A3
:10010C0010B5054C237833B9044B13B10448AFF345
:10011C0000800123237010BD70000020000000003F
:10012C00F034000808B5034B1BB103490348AFF387
:10013C00008008BD0000000074000020F0340008AE
:10014C00034613F8012B002AFBD1181A013870470B
:10015C00B0B58AB000AFF860B9607A603B6097F8D0
:10016C00443087F82630B7F84030BB84FB6B3B62D9
:10017C003B8FBB833B68BB617B687B61BB683B612E
:10018C0007F11003184600F00EF8FB681D4607F146
:10019C0010040FCC0FC594E8030085E80300F86841
:1001AC002837BD46B0BD80B582B000AF78607B68A3
:1001BC009B7D002B0CD13321786800F056F832214E
:1001CC00786800F052F82821786800F04EF803E0C7
:1001DC003821786800F049F80121786800F045F87A
:1001EC000C21786800F041F80621786800F03DF8A1
:1001FC0000BF0837BD4680BD90B585B000AF7860B4
:10020C0039600023FB730AE0FB7B3A6813441B78CC
:10021C001946786800F057F8FB7B0133FB73FC7BC5
:10022C003868FFF78DFF03469C42EDD300BF1437AF
:10023C00BD4690BD80B582B000AF78600121786872
:10024C0000F013F800BF0837BD4680BD80B582B002
:10025C0000AF78600B46FB70FB781946786800F0AD
:10026C0004F800BF0837BD4680BD80B582B000AF32
:10027C0078600B46FB707B6898687B689B890022D2
:10028C00194601F018F87B689B7D002B11D1FB7887
:10029C001B09DBB204221946786800F042F8FB789F
:1002AC0003F00F03DBB204221946786800F039F82A
:1002BC0005E0FB7808221946786800F032F800BF98
:1002CC000837BD4680BD80B582B000AF78600B4664
:1002DC00FB707B6898687B689B890122194600F04B
:1002EC00EAFF7B689B7D002B11D1FB781B09DBB2ED
:1002FC0004221946786800F014F8FB7803F00F0319
:10030C00DBB204221946786800F00BF805E0FB78A4
:10031C0008221946786800F004F800BF0837BD467B
:10032C0080BD80B584B000AF78600B46FB7013467F
:10033C00BB700023FB7319E07B681A68FB7B9B0086
:10034C00134418687B685A68FB7B5B00134419885C
:10035C00FA78FB7B42FA03F3DBB203F00103DBB266
:10036C001A4600F0A8FFFB7B0133FB73FA7BBB78CA
:10037C009A42E1D37B6818697B689B8A01221946F3
:10038C0000F099FF012000F027FD7B6818697B685D
:10039C009B8A0022194600F08EFF00BF1037BD4625
:1003AC0080BD000080B582B000AF17233B7148239D
:1003BC007B710023BB713B1D01221946124801F0D1
:1003CC00FBFE0346002B01D000F074FB00233B70B6
:1003DC0002237B701323BB702223FB703B4601224C
:1003EC001946094802F058F80346002B01D000F0DA
:1003FC0061FB43F2F2220121034802F0F9FB00BF3A
:10040C000837BD4680BD00BFEC00002080B584B02D
:10041C0002AF3B4600221946154801F065FF3B1D13
:10042C0000221946124802F0EDF83A78114B1A7076
:10043C007A78104B5A703B781A467B781946BB7801
:10044C0000930B460C490D4802F03AFCBB791A4656
:10045C007B791946FB7903F5FA6300930B4608493F
:10046C00084802F02DFC00BF0837BD4680BD00BF18
:10047C00EC000020180100200835000800010020C5
:10048C00183500080C01002080B582B000AF7860F0
:10049C0080217868FFF7DAFE0B497868FFF7ACFE2D
:1004AC000A497868FFF7A8FEC0217868FFF7CEFEEE
:1004BC0007497868FFF7A0FE06497868FFF79CFEAD
:1004CC0000BF0837BD4680BD28350008000100205C
:1004DC00303500080C01002080B500AF002210213F
:1004EC000F4800F0E8FEC82000F076FC0122102135
:1004FC000B4800F0E0FE642000F06EFC002210219E
:10050C00074800F0D8FEC82000F066FC012210213C
:10051C00034800F0D0FE642000F05EFC00BF80BDFC
:10052C000008014090B5ABB004AF0023C7F894307D
:10053C000123C7F88C304FF0FF33C7F8883000F038
:10054C00E9FB00F081F900F04BFA00F0D1F900F072
:10055C00FDF9B34B07F120040FCB84E80F00B14A2F
:10056C0007F1180392E8030083E80300384607F10B
:10057C00180207F120010023039308230293AA4BCE
:10058C00019302230093A84BFFF7E2FD0121A7483A
:10059C0002F048FB024643F2F2239A4201D0FFF7E5
:1005AC0001FF01221021A24800F085FEFFF72EFF6B
:1005BC003B461846FFF768FF0023C7F890305DE014
:1005CC00D7F890305B0007F19802134413F8242CF1
:1005DC00984B1B789A424CD1D7F890305B0007F1BE
:1005EC009802134413F8232C924B5B789A4240D117
:1005FC003B461846FFF71EFE3B4680211846FFF788
:10060C0025FED7F890305A1C07F154038A49184636
:10061C0002F056FB07F154023B4611461846FFF711
:10062C00EBFD3B46C0211846FFF710FED7F8903083
:10063C005B0007F19802134413F8243C1A46D7F8D0
:10064C0090305B0007F198010B4413F8233C07F141
:10065C0034007A4902F034FB07F134023B46114670
:10066C001846FFF7C9FDFFF737FFFFF735FFFFF718
:10067C0033FFD7F890300133C7F89030D7F890207B
:10068C00D7F894309A429BDB4FF4967000F0A4FBA1
:10069C000221674800F0F8FD0346002B86D100BF0D
:1006AC000221634800F0F0FD0346002BF8D0002334
:1006BC0087F83030002387F831300023C7F89030AA
:1006CC003B461846FFF7B6FD94E03B4680211846A2
:1006DC00FFF7BCFDD7F890305A1C07F1540358496A
:1006EC00184602F0EDFA07F154023B461146184643
:1006FC00FFF782FD3B46C0211846FFF7A7FD97F890
:10070C0030301A4697F8313007F134004D4902F079
:10071C00D7FA07F134023B4611461846FFF76CFD39
:10072C000421434800F0B0FD0346002B26D100BF46
:10073C0004213F4800F0A8FD0346002BF8D0D7F861
:10074C008C30012B0DD197F830300133DBB287F8A8
:10075C00303097F83030182B10D1002387F8303018
:10076C000CE097F831300133DBB287F8313097F871
:10077C0031303C2B02D1002387F8313008212C4832
:10078C0000F082FD0346002B34D100BF082128481D
:10079C0000F07AFD0346002BF8D0D7F88C305B4282
:1007AC00C7F88C30D7F888305B42C7F88830D7F858
:1007BC008C30012B1ED197F83020D7F890305B008D
:1007CC0007F198010B4403F8242C97F83120D7F843
:1007DC0090305B0007F198010B4403F8232C0023A5
:1007EC0087F83030002387F83130D7F89030013358
:1007FC00C7F8903002210E4800F046FD0346002B4E
:10080C0004D0D7F89030092B7FF75FAFD7F8903032
:10081C00C7F894303B461846FFF70CFDC6E600BF00
:10082C008035000890350008000C0140EC000020D9
:10083C000008014018010020383500084C3500082C
:10084C00643500087435000880B594B000AF07F12A
:10085C00280328220021184602F02AFA07F1140373
:10086C0000221A605A609A60DA601A613B1D0022FD
:10087C001A605A609A60DA600A23BB620123BB6378
:10088C001023FB6301233B6400237B6407F12803E3
:10089C00184600F06DFE0346002B01D000F00AF95B
:1008AC000F237B610023BB610023FB6100233B62B0
:1008BC0000237B6207F114030021184601F0D8F8DD
:1008CC000346002B01D000F0F5F801237B604FF4B8
:1008DC000073BB603B1D184601F066FA0346002B03
:1008EC0001D000F0E7F800BF5037BD4680BD0000D6
:1008FC0080B500AF124B134A1A60114B124A5A6062
:10090C000F4B00229A600E4B0022DA600C4B4FF416
:10091C0080421A610A4B00225A61094B00229A61EB
:10092C00074B0022DA61064B00221A62044800F0E1
:10093C00DBFC0346002B01D000F0BCF800BF80BDEF
:10094C009800002000540040A086010080B582B0C1
:10095C0000AF3B1D00210A461A800A469A700023FC
:10096C003B601D4B1D4A1A601B4B4FF0FF325A6007
:10097C00194B4FF480729A60174801F087FB0346BD
:10098C00002B01D000F096F800233B7100237B7103
:10099C000023BB713B1D012219460F4801F00CFCD2
:1009AC000346002B01D000F085F801233B70012396
:1009BC007B700123BB700023FB703B460122194660
:1009CC00054801F069FD0346002B01D000F072F8D8
:1009DC0000BF0837BD4680BDEC0000200028004059
:1009EC0080B588B000AF07F1100300221A605A607E
:1009FC009A60DA602C4B9B692B4A43F0200393617D
:100A0C00294B9B6903F02003FB60FB68264B9B6919
:100A1C00254A43F004039361234B9B6903F00403C1
:100A2C00BB60BB68204B9B691F4A43F00803936172
:100A3C001D4B9B6903F008037B607B68002210212F
:100A4C001A4800F038FC0022FE21194800F033FC53
:100A5C000E233B6100237B610023BB6107F1100374
:100A6C001946124800F0BEFA10233B6101237B614A
:100A7C000023BB610223FB6107F1100319460B48ED
:100A8C0000F0B0FAFE233B6101237B610023BB61C4
:100A9C000223FB6107F110031946054800F0A2FA86
:100AAC0000BF2037BD4680BD001002400008014049
:100ABC00000C014080B400AF00BFBD4680BC704745
:100ACC0080B485B000AF154B9B69144A43F0010309
:100ADC009361124B9B6903F00103BB60BB680F4B26
:100AEC00DB690E4A43F08053D3610C4BDB6903F096
:100AFC0080537B607B680A4B5B68FB60FB6823F070
:100B0C00E063FB60FB6843F08063FB60044AFB68B6
:100B1C00536000BF1437BD4680BC704700100240C4
:100B2C000000014080B58AB000AF786007F1140373
:100B3C0000221A605A609A60DA607B681B681E4A51
:100B4C00934234D11D4B9B691C4A43F008039361BB
:100B5C001A4B9B6903F008033B613B694FF44073EC
:100B6C007B611223BB610123FB6103233B6207F111
:100B7C0014031946124800F035FA124B5B687B627D
:100B8C007B6A43F0E0637B627B6A43F002037B6227
:100B9C000C4A7B6A5360094BDB69084A43F4001327
:100BAC00D361064BDB6903F40013FB60FB6800BFE9
:100BBC002837BD4680BD00BF0054004000100240E5
:100BCC00000C01400000014080B584B000AF78609B
:100BDC007B681B680B4A934210D100F0BDFC0A4B9A
:100BEC00DB69094A43F00063D361074BDB6903F00F
:100BFC000063FB60FB68054B01221A6000BF1037D5
:100C0C00BD4680BD00280040001002403C0442421A
:100C1C0080B400AF00BFBD4680BC704780B400AF4D
:100C2C00FEE780B400AFFEE780B400AFFEE780B40F
:100C3C0000AFFEE780B400AF00BFBD4680BC70477C
:100C4C0080B400AF00BFBD4680BC704780B400AF1D
:100C5C0000BFBD4680BC704780B500AF00F0A0F867
:100C6C0000BF80BD80B584B000AF7860114B1B68AD
:100C7C00002B02D10F4B104A1A600E4B1B68FB6005
:100C8C000C4B1A687B6813446A46934207D901F0EF
:100C9C00E5FF02460C2313604FF0FF3306E0054BD3
:100CAC001A687B681344034A1360FB6818461037B4
:100CBC00BD4680BD8C0000202801002080B400AF10
:100CCC0000BFBD4680BC70470C480D490D4A00233F
:100CDC0002E0D458C4500433C4188C42F9D30A4AE5
:100CEC000A4C002301E013600432A242FBD3FFF74D
:100CFC00E5FF01F0B9FFFFF715FC7047000000207D
:100D0C007000002014360008700000202401002020
:100D1C00FEE7000080B500AF084B1B68074A43F0A4
:100D2C0010031360032000F029F9002000F008F8EC
:100D3C00FFF7C6FE0023184680BD00BF002002400E
:100D4C0080B582B000AF7860124B1A68124B1B78DA
:100D5C0019464FF47A73B3FBF1F3B2FBF3F3184675
:100D6C0000F033F90346002B01D001230EE07B6821
:100D7C000F2B0AD8002279684FF0FF3000F009F9E8
:100D8C00064A7B681360002300E0012318460837ED
:100D9C00BD4680BD0000002008000020040000209B
:100DAC0080B400AF054B1B781A46054B1B681344E7
:100DBC00034A136000BFBD4680BC7047080000208A
:100DCC001C01002080B400AF024B1B681846BD46C6
:100DDC0080BC70471C01002080B584B000AF7860E7
:100DEC00FFF7F0FFB8607B68FB60FB68B3F1FF3F77
:100DFC0005D0094B1B781A46FB681344FB6000BFF7
:100E0C00FFF7E0FF0246BB68D31AFA689A42F7D89C
:100E1C0000BF1037BD4680BD0800002080B485B0EF
:100E2C0000AF78607B6803F00703FB600C4BDB685A
:100E3C00BB60BA684FF6FF031340BB60FB681A0235
:100E4C00BB68134343F0BF6343F40033BB60044AF5
:100E5C00BB68D36000BF1437BD4680BC704700BF71
:100E6C0000ED00E080B400AF044BDB681B0A03F01C
:100E7C0007031846BD4680BC704700BF00ED00E07C
:100E8C0080B483B000AF03463960FB7197F907302B
:100E9C00002B0ADB3B68DAB20C4997F907301201D8
:100EAC00D2B20B4483F800230AE03B68DAB208495B
:100EBC00FB7903F00F03043B1201D2B20B441A76F8
:100ECC0000BF0C37BD4680BC704700BF00E100E09E
:100EDC0000ED00E080B489B000AFF860B9607A60D2
:100EEC00FB6803F00703FB61FB69C3F10703042BE9
:100EFC0028BF0423BB61FB690433062B02D9FB69B1
:100F0C00033B00E000237B614FF0FF32BB6902FA28
:100F1C0003F3DA43BB681A407B699A404FF0FF3108
:100F2C007B6901FA03F3D9437B680B4013431846E2
:100F3C002437BD4680BC704780B582B000AF786066
:100F4C007B68013BB3F1807F01D301230FE00A4A98
:100F5C007B68013B53600F214FF0FF30FFF790FF90
:100F6C00054B00229A60044B07221A600023184696
:100F7C000837BD4680BD00BF10E000E080B582B0F0
:100F8C0000AF78607868FFF749FF00BF0837BD46AF
:100F9C0080BD80B586B000AF0346B9607A60FB7344
:100FAC0000237B61FFF75EFF78617A68B968786926
:100FBC00FFF790FF024697F90F3011461846FFF7DE
:100FCC005FFF00BF1837BD4680BD80B582B000AF53
:100FDC0078607868FFF7B0FF034618460837BD46BF
:100FEC0080BD000080B48BB000AF78603960002306
:100FFC007B6200233B6221E101227B6A02FA03F34C
:10100C00FB613B681B68FA691340BB61BA69FB69F9
:10101C009A4240F010813B685B68122B34D0122B43
:10102C000DD8022B2BD0022B04D8002B31D0012B46
:10103C001CD048E0032B43D0112B1BD043E0864A35
:10104C00934226D0844A934206D8844A934220D0B5
:10105C00834A93421DD036E0824A934219D0824A89
:10106C00934216D0814A934213D02CE03B68DB6844
:10107C003B6228E03B68DB6804333B6223E03B685F
:10108C00DB6808333B621EE03B68DB680C333B6279
:10109C0019E03B689B68002B02D104233B6212E0F1
:1010AC003B689B68012B05D108233B627B68FA697E
:1010BC001A6108E008233B627B68FA695A6102E016
:1010CC0000233B6200BFBB69FF2B01D87B6801E0AA
:1010DC007B6804337B61BB69FF2B02D87B6A9B0066
:1010EC0002E07B6A083B9B003B617B691A680F211D
:1010FC003B6901FA03F3DB431A40396A3B6901FA95
:10110C0003F31A437B691A603B685B6803F08053F6
:10111C00002B00F09080564B9B69554A43F001031D
:10112C009361534B9B6903F00103BB60BB68514A4D
:10113C007B6A9B08023352F82330FB607B6A03F016
:10114C0003039B000F2202FA03F3DB43FA681340FC
:10115C00FB607B68484A93420DD07B68474A9342B8
:10116C0007D07B68464A934201D1022304E0032353
:10117C0002E0012300E000237A6A02F003029200ED
:10118C009340FA681343FB603A497B6A9B0802332D
:10119C00FA6841F823203B685B6803F48033002B2A
:1011AC0006D0384B1A683749BB6913430B6006E00D
:1011BC00344B1A68BB69DB43324913400B603B6804
:1011CC005B6803F40033002B06D02E4B5A682D4974
:1011DC00BB6913434B6006E02A4B5A68BB69DB437F
:1011EC00284913404B603B685B6803F48013002B69
:1011FC0006D0244B9A682349BB6913438B6006E0E5
:10120C00204B9A68BB69DB431E4913408B603B68DB
:10121C005B6803F40013002B06D01A4BDA681949EB
:10122C00BB691343CB6006E0164BDA68BB69DB4342
:10123C0014491340CB607B6A01337B623B681A68AC
:10124C007B6A22FA03F3002B7FF4D6AE00BF2C3757
:10125C00BD4680BC704700BF00002110000011107B
:10126C00000012100000311000003210000022109B
:10127C00001002400000014000080140000C014039
:10128C00001001400004014080B485B000AF7860CC
:10129C000B467B807B689A687B881340002B02D0BE
:1012AC000123FB7301E00023FB73FB7B184614370F
:1012BC00BD4680BC704780B483B000AF78600B46ED
:1012CC007B8013467B707B78002B03D07A887B68FD
:1012DC001A6103E07B881A047B681A6100BF0C3723
:1012EC00BD4680BC7047000080B584B000AF78600C
:1012FC007B68002B01D101231FE17B6893F83D3003
:10130C00DBB2002B06D17B68002283F83C20786886
:10131C00FFF708FC7B68242283F83D207B681B6860
:10132C001A687B681B6822F001021A607B681B68D4
:10133C001A687B681B6842F400421A607B681B6861
:10134C001A687B681B6822F400421A6000F0E6FC05
:10135C00F8607B685B687B4A934207D8FB687A4AE3
:10136C00934294BF01230023DBB206E0FB68774A6B
:10137C00934294BF01230023DBB2002B01D0012345
:10138C00DBE0FB68724AA2FB03239B0CBB607B680F
:10139C001B685B6823F03F017B681B68BA680A43D3
:1013AC005A607B681B681B6A23F03F017B685B6893
:1013BC00644A934202D8BB68013309E0BB684FF41E
:1013CC00967202FB03F3634AA2FB03239B090133CE
:1013DC007A6812680B4313627B681B68DB6923F421
:1013EC004F4222F0FF027B685B6856498B420DD856
:1013FC00FB68591E7B685B685B00B1FBF3F3013340
:10140C00C3F30B03042B38BF04234FE07B689B68AA
:10141C00002B11D1FB68581E7B6859680B465B008A
:10142C000B44B0FBF3F30133C3F30B03002B0CBFE2
:10143C0001230023DBB212E0FB68581E7B6859685D
:10144C000B469B000B4499000B44B0FBF3F30133A8
:10145C00C3F30B03002B0CBF01230023DBB2002BC7
:10146C0001D0012322E07B689B68002B0ED1FB6826
:10147C00581E7B6859680B465B000B44B0FBF3F3BA
:10148C000133C3F30B0343F400430FE0FB68581E16
:10149C007B6859680B469B000B4499000B44B0FBCE
:1014AC00F3F30133C3F30B0343F440437968096846
:1014BC001343CB617B681B681B6823F0C0017B68FE
:1014CC00DA697B681B6A1A437B681B680A431A60DB
:1014DC007B681B689B6823F4034323F0FF037A6843
:1014EC0011697A68D26811437A6812680B43936069
:1014FC007B681B68DB6823F0FF017B685A697B689B
:10150C009B691A437B681B680A43DA607B681B681B
:10151C001A687B681B6842F001021A607B68002223
:10152C001A647B68202283F83D207B6800221A63B2
:10153C007B68002283F83E20002318461037BD46F6
:10154C0080BD00BFA08601007F841E00FF083D0007
:10155C0083DE1B43D34D621080B400AF034B0122DA
:10156C001A6000BFBD4680BC704700BF20000E4211
:10157C0080B586B000AF78607B68002B01D1012369
:10158C006CE27B681B6803F00103002B00F0878082
:10159C00924B5B6803F00C03042B0CD08F4B5B68F5
:1015AC0003F00C03082B12D18C4B5B6803F48033D3
:1015BC00B3F5803F0BD1894B1B6803F40033002B30
:1015CC006CD07B685B68002B68D1012346E27B689A
:1015DC005B68B3F5803F06D1804B1B687F4A43F4B0
:1015EC00803313602EE07B685B68002B0CD17B4B47
:1015FC001B687A4A23F480331360784B1B68774A54
:10160C0023F4802313601DE07B685B68B3F5A02F87
:10161C000CD1724B1B68714A43F4802313606F4BDF
:10162C001B686E4A43F4803313600BE06B4B1B68F2
:10163C006A4A23F480331360684B1B68674A23F4AF
:10164C00802313607B685B68002B13D0FFF7BAFB19
:10165C00386108E0FFF7B6FB02463B69D31A642BEE
:10166C0001D90323FAE15D4B1B6803F40033002B13
:10167C00F0D014E0FFF7A6FB386108E0FFF7A2FBFF
:10168C0002463B69D31A642B01D90323E6E1534B81
:10169C001B6803F40033002BF0D100E000BF7B6823
:1016AC001B6803F00203002B63D04C4B5B6803F008
:1016BC000C03002B0BD0494B5B6803F00C03082B7D
:1016CC001CD1464B5B6803F48033002B16D1434B83
:1016DC001B6803F00203002B05D07B681B69012BF0
:1016EC0001D00123BAE13D4B1B6823F0F8027B6863
:1016FC005B69DB00394913430B603AE07B681B697B
:10170C00002B20D0364B01221A60FFF75BFB3861AF
:10171C0008E0FFF757FB02463B69D31A022B01D9AD
:10172C0003239BE12D4B1B6803F00203002BF0D02D
:10173C002A4B1B6823F0F8027B685B69DB002749A6
:10174C0013430B6015E0264B00221A60FFF73AFB9F
:10175C00386108E0FFF736FB02463B69D31A022BCF
:10176C0001D903237AE11D4B1B6803F00203002B04
:10177C00F0D17B681B6803F00803002B3AD07B6820
:10178C009B69002B19D0174B01221A60FFF71AFB2B
:10179C00386108E0FFF716FB02463B69D31A022BAF
:1017AC0001D903235AE10D4B5B6A03F00203002BB2
:1017BC00F0D0012000F0DAFA1CE00A4B00221A608B
:1017CC00FFF700FB38610FE0FFF7FCFA02463B69BC
:1017DC00D31A022B08D9032340E100BF00100240AA
:1017EC0000004242800442429E4B5B6A03F00203BB
:1017FC00002BE9D17B681B6803F00403002B00F07D
:10180C00A6800023FB75974BDB6903F08053002BFC
:10181C000DD1944BDB69934A43F08053D361914BC8
:10182C00DB6903F08053BB60BB680123FB758E4BF7
:10183C001B6803F48073002B18D18B4B1B688A4AEE
:10184C0043F480731360FFF7BDFA386108E0FFF7CB
:10185C00B9FA02463B69D31A642B01D90323FDE084
:10186C00814B1B6803F48073002BF0D07B68DB6822
:10187C00012B06D17B4B1B6A7A4A43F0010313629E
:10188C002DE07B68DB68002B0CD1764B1B6A754A0C
:10189C0023F001031362734B1B6A724A23F0040397
:1018AC0013621CE07B68DB68052B0CD16D4B1B6A4B
:1018BC006C4A43F0040313626A4B1B6A694A43F097
:1018CC00010313620BE0674B1B6A664A23F00103AA
:1018DC001362644B1B6A634A23F0040313627B6834
:1018EC00DB68002B15D0FFF76DFA38610AE0FFF7C3
:1018FC0069FA02463B69D31A41F28832934201D904
:10190C000323ABE0574B1B6A03F00203002BEED012
:10191C0014E0FFF757FA38610AE0FFF753FA024672
:10192C003B69D31A41F28832934201D9032395E0E3
:10193C004C4B1B6A03F00203002BEED1FB7D012BF9
:10194C0005D1484BDB69474A23F08053D3617B6850
:10195C00DB69002B00F08180424B5B6803F00C03C9
:10196C00082B61D07B68DB69022B46D13F4B0022F0
:10197C001A60FFF727FA386108E0FFF723FA0246EE
:10198C003B69D31A022B01D9032367E0354B1B6843
:10199C0003F00073002BF0D17B681B6AB3F5803F1A
:1019AC0008D1304B5B6823F400327B689B682D496F
:1019BC0013434B602B4B5B6823F474127B68196ADE
:1019CC007B685B6A0B43274913434B60274B01220F
:1019DC001A60FFF7F7F9386108E0FFF7F3F90246F0
:1019EC003B69D31A022B01D9032337E01D4B1B682B
:1019FC0003F00073002BF0D02FE01C4B00221A6078
:101A0C00FFF7E0F9386108E0FFF7DCF902463B69C3
:101A1C00D31A022B01D9032320E0124B1B6803F0CD
:101A2C000073002BF0D118E07B68DB69012B01D12E
:101A3C00012313E00B4B5B68FB60FB6803F4803203
:101A4C007B681B6A9A4206D1FB6803F470127B68B0
:101A5C005B6A9A4201D0012300E000231846183734
:101A6C00BD4680BD00100240007000406000424244
:101A7C0080B584B000AF786039607B68002B01D1F1
:101A8C000123D0E06A4B1B6803F007033A689A42C3
:101A9C0010D9674B1B6823F0070265493B68134359
:101AAC000B60634B1B6803F007033A689A4201D042
:101ABC000123B8E07B681B6803F00203002B20D0E5
:101ACC007B681B6803F00403002B05D0594B5B6843
:101ADC00584A43F4E06353607B681B6803F00803C7
:101AEC00002B05D0534B5B68524A43F46053536050
:101AFC00504B5B6823F0F0027B689B684D491343A5
:101B0C004B607B681B6803F00103002B40D07B68A3
:101B1C005B68012B07D1474B1B6803F40033002B88
:101B2C0015D101237FE07B685B68022B07D1414B09
:101B3C001B6803F00073002B09D1012373E03D4BAC
:101B4C001B6803F00203002B01D101236BE0394B1E
:101B5C005B6823F003027B685B68364913434B6078
:101B6C00FFF730F9F8600AE0FFF72CF90246FB6842
:101B7C00D31A41F28832934201D9032353E02D4BFF
:101B8C005B6803F00C027B685B689B009A42EBD1AC
:101B9C00274B1B6803F007033A689A4210D2244B78
:101BAC001B6823F0070222493B6813430B60204B50
:101BBC001B6803F007033A689A4201D0012332E014
:101BCC007B681B6803F00403002B08D0194B5B687F
:101BDC0023F4E0627B68DB68164913434B607B6837
:101BEC001B6803F00803002B09D0124B5B6823F42D
:101BFC0060527B681B69DB000E4913434B6000F09D
:101C0C0021F801460B4B5B681B0903F00F030A4AD2
:101C1C00D35C21FA03F3094A1360094B1B6818467D
:101C2C00FFF78EF8002318461037BD4680BD00BF65
:101C3C000020024000100240C035000800000020C7
:101C4C000400002090B48AB000AF2A4B3C1D0FCB8F
:101C5C0084E80F00284B1B883B800023FB6100238A
:101C6C00BB6100237B6200237B6100233B62234B1F
:101C7C005B68FB61FB6903F00C03042B02D0082B9F
:101C8C0003D02DE01E4B3B622DE0FB699B0C03F057
:101C9C000F0307F12802134413F8243C7B61FB6902
:101CAC0003F48033002B13D0144B5B685B0C03F0F4
:101CBC00010307F12802134413F8283CBB617B692C
:101CCC000F4A02FB03F2BB69B2FBF3F37B6204E045
:101CDC007B690C4A02FB03F37B627B6A3B6202E08A
:101CEC00074B3B6200BF3B6A18462837BD4690BC89
:101CFC00704700BF98350008A83500080010024056
:101D0C0000127A0000093D0080B400AF024B1B6842
:101D1C001846BD4680BC70470000002080B500AF5F
:101D2C00FFF7F2FF0146054B5B681B0A03F0070344
:101D3C00034AD35C21FA03F3184680BD001002401D
:101D4C00D035000880B500AFFFF7DEFF0146054B2C
:101D5C005B68DB0A03F00703034AD35C21FA03F345
:101D6C00184680BD00100240D035000880B485B004
:101D7C0000AF78600A4B1B680A4AA2FB03235B0A7C
:101D8C007A6802FB03F3FB6000BFFB685A1EFA6023
:101D9C00002BF9D100BF1437BD4680BC704700BF83
:101DAC0000000020D34D621080B586B000AF786083
:101DBC0000233B610023FB607B681B6803F001037D
:101DCC00002B7DD00023FB754F4BDB6903F0805358
:101DDC00002B0DD14C4BDB694B4A43F08053D36144
:101DEC00494BDB6903F08053BB60BB680123FB7577
:101DFC00464B1B6803F48073002B18D1434B1B68B4
:101E0C00424A43F480731360FEF7DCFF386108E04C
:101E1C00FEF7D8FF02463B69D31A642B01D9032382
:101E2C006DE03A4B1B6803F48073002BF0D0364BFB
:101E3C001B6A03F44073FB60FB68002B2ED07B689D
:101E4C005B6803F44073FA689A4227D02E4B1B6AE6
:101E5C0023F44073FB602E4B01221A602C4B0022A2
:101E6C001A60294AFB681362FB6803F00103002B1C
:101E7C0014D0FEF7A7FF38610AE0FEF7A3FF024675
:101E8C003B69D31A41F28832934201D9032336E0DD
:101E9C001D4B1B6A03F00203002BEED01A4B1B6A7E
:101EAC0023F440727B685B68174913430B62FB7D1C
:101EBC00012B05D1144BDB69134A23F08053D361FA
:101ECC007B681B6803F00203002B08D00E4B5B6889
:101EDC0023F440427B689B680B4913434B607B683F
:101EEC001B6803F01003002B08D0074B5B6823F42E
:101EFC0080027B68DB68044913434B60002318465F
:101F0C001837BD4680BD00BF001002400070004075
:101F1C004004424290B58DB000AF7860554B07F14C
:101F2C000C040FCB84E80F00534B1B883B81002320
:101F3C007B620023FB6200233B620023FB610023D6
:101F4C00BB627B68022B7FD0102B02D0012B48D0B8
:101F5C008BE04A4B5B68FB61484B1B6803F080735A
:101F6C00002B7FD0FB699B0C03F00F0307F13002B1
:101F7C00134413F8243C3B62FB6903F48033002BBD
:101F8C0018D03E4B5B685B0C03F0010307F1300289
:101F9C00134413F8283C7B62FB6903F48033002B59
:101FAC000DD0374A7B6AB2FBF3F23B6A02FB03F3B8
:101FBC00FB6204E03B6A334A02FB03F3FB622F4BE8
:101FCC005B6803F48003B3F5800F02D1FB6ABB623C
:101FDC0048E0FB6A5B002C4AA2FB03235B08BB6254
:101FEC0040E0264B1B6AFB61FB6903F44073B3F5BD
:101FFC00807F08D1FB6903F00203002B03D04FF460
:10200C000043BB621FE0FB6903F44073B3F5007F30
:10201C0009D11A4B5B6A03F00203002B03D049F67B
:10202C004043BB620FE0FB6903F44073B3F5407FA0
:10203C001AD1124B1B6803F40033002B14D04FF24F
:10204C002443BB6210E00FE0FFF77CFE02460B4B13
:10205C005B689B0B03F0030301335B00B2FBF3F3F0
:10206C00BB6202E000BF00E000BFBB6A1846343719
:10207C00BD4690BDAC350008BC35000800100240D0
:10208C0000127A0000093D00ABAAAAAA80B584B060
:10209C0000AF78600023FB607B68002B01D101232B
:1020AC0084E07B685B7CDBB2002B05D17B68002273
:1020BC001A747868FEF788FD7B6802225A74786877
:1020CC0000F0F4FA0346002B04D07B6804225A7407
:1020DC0001236BE0786800F0ADFB0346002B04D0C5
:1020EC007B6804225A74012360E07B681B685A6881
:1020FC007B681B6822F007025A607B689B68002B88
:10210C0005D02C4B1B6B2B4A23F001031363294B7B
:10211C00DB6A23F460727B689B6826491343CB62AD
:10212C007B685B68B3F1FF3F03D07B685B68FB6047
:10213C000EE00120FFF7EEFEF860FB68002B04D1E7
:10214C007B6804225A74012330E0FB68013BFB607E
:10215C007B681B689B6823F00F01FB681A0C7B687B
:10216C001B680A439A607B681B68DB681B0C1B04AA
:10217C00FA6891B27A6812680B43D360786800F001
:10218C0081FB0346002B04D07B6804225A74012384
:10219C000CE07B680022DA737B6801225A737B683F
:1021AC0001229A737B6801225A7400231846103757
:1021BC00BD4680BD006C004090B587B000AFF860A4
:1021CC00B9607A6000237B6100233B61FB68002BC4
:1021DC0002D0BB68002B01D1012380E0FB681B7C83
:1021EC00012B01D102237AE0FB6801221A74FB68EF
:1021FC0002225A747B68002B13D1BB681B781A46D9
:10220C004FF4616303FB02F2BB685B7819460B4623
:10221C001B015B1A9B001344BA68927813447B61D0
:10222C001EE0BB681B78184600F071FB03461A468B
:10223C004FF4616303FB02F4BB685B78184600F053
:10224C0066FB03461A4613461B019B1A9B001C4453
:10225C00BB689B78184600F05AFB034623447B610D
:10226C007969F86800F07FFA0346002B07D0FB6809
:10227C0004225A74FB6800221A7401232FE0FB68B5
:10228C001B685A68FB681B6822F005025A60F868E4
:10229C0000F090FA38613B69B3F1FF3F18D03A690E
:1022AC007B699A4214D23B6903F5A83303F5C073DA
:1022BC003B613969F86800F096FA0346002B07D0A9
:1022CC00FB6804225A74FB6800221A74012306E08E
:1022DC00FB6801225A74FB6800221A74002318460A
:1022EC001C37BD4690BD000080B588B000AFF860CB
:1022FC00B9607A600023BB610023FB6100237B6122
:10230C0000233B61FB68002B02D0BB68002B01D182
:10231C000123B5E0FB681B685B6803F00403002B2A
:10232C0001D00123ACE0F86800F0EDF9B861BB69AD
:10233C00554AA2FB0323DB0A3B61BA69524BA3FB50
:10234C000213DB0A4FF4616101FB03F3D31A4F4A0A
:10235C00A2FB03235B09DAB2BB685A70BB694A4A19
:10236C00A2FB0312D20A4FF4616101FB02F29A1A2A
:10237C00464BA3FB021359090B461B015B1A9B002E
:10238C00D11ACAB2BB689A703B69172B55D93B69F5
:10239C003F4AA2FB03231B097B6139693C4BA3FB1E
:1023AC0001231A0913465B001344DB00CA1AD2B28C
:1023BC00BB681A70F86800F0FDF9F861FB69B3F1BD
:1023CC00FF3F08D0FA69BB699A4204D9FA69BB6924
:1023DC00D31AFB6102E04FF0FF33FB617B692D4A9E
:1023EC0002FB03F3BA69D31ABB61B969F86800F050
:1023FC00BAF90346002B01D0012341E0FB69B3F18C
:10240C00FF3F0CD0FA69BB691344FB61F969F868AA
:10241C0000F0E9F90346002B0AD0012330E0F969FA
:10242C00F86800F0E0F90346002B01D0012327E007
:10243C007969F86800F088FA03E03B69DAB2BB68A6
:10244C001A707B68002B1AD0BB681B78184600F0FA
:10245C0041FA03461A46BB681A70BB685B7818468B
:10246C0000F038FA03461A46BB685A70BB689B7872
:10247C00184600F02FFA03461A46BB689A700023E0
:10248C0018462037BD4680BDC5B3A291898888887F
:10249C00ABAAAAAA8051010080B588B000AFF86041
:1024AC00B9607A600023FB610023BB6100237B6170
:1024BC00FB68002B02D0BB68002B01D1012397E0F5
:1024CC00FB681B7C012B01D1022391E0FB680122EC
:1024DC001A74FB6802225A747B68002B0CD1BB68FF
:1024EC00DA78FB68DA73BB685A78FB685A73BB6896
:1024FC009A78FB689A731AE0BB68DB78184600F090
:10250C0006FA03461A46FB68DA73BB685B78184612
:10251C0000F0FDF903461A46FB685A73BB689B78BA
:10252C00184600F0F4F903461A46FB689A73FB68E8
:10253C00DB7B1846FB68597BFB689B7B1A4600F0DB
:10254C00DFFA03461A46FB681A73FB681A7BBB68F2
:10255C001A70F86800F0D7F8F861FB69264AA2FBFC
:10256C000323DB0A7B617B69182B3AD97B69234AED
:10257C00A2FB03231B09224A02FB03F3FA69D31AB9
:10258C00FB61F969F86800F0EEF80346002B07D000
:10259C00FB6804225A74FB6800221A74012327E09A
:1025AC00F86800F007F9B861BB69B3F1FF3F18D0C8
:1025BC00BA69FB699A4214D2BB6903F5A83303F5D7
:1025CC00C073BB61B969F86800F00DF90346002BC4
:1025DC0007D0FB6804225A74FB6800221A7401238A
:1025EC0006E0FB6801225A74FB6800221A7400236F
:1025FC0018462037BD4680BDC5B3A291ABAAAAAA86
:10260C008051010080B586B000AFF860B9607A6087
:10261C0007F1140300210A461A800A469A70FB68D7
:10262C00002B02D0BB68002B01D101233AE007F14B
:10263C00140300221946F868FFF756FE0346002BD8
:10264C0001D001232EE0FB681A7BBB681A70FB6873
:10265C00DA7BBB68DA70FB685A7BBB685A70FB6824
:10266C009A7BBB689A707B68002B1AD0BB68DB78AE
:10267C00184600F02FF903461A46BB68DA70BB689F
:10268C005B78184600F026F903461A46BB685A7068
:10269C00BB689B78184600F01DF903461A46BB68C8
:1026AC009A70002318461837BD4680BD80B584B09B
:1026BC0000AF78600023FB607B68002B01D1012305
:1026CC001DE07B681B685A687B681B6822F0080257
:1026DC005A60FEF777FBF86009E0FEF773FB0246E1
:1026EC00FB68D31AB3F57A7F01D9032307E07B6823
:1026FC001B685B6803F00803002BEED00023184620
:10270C001037BD4680BD80B487B000AF7860002321
:10271C007B8200233B820023FB8100237B617B684F
:10272C001B689B697B827B681B68DB69FB817B6810
:10273C001B689B693B827A8A3B8A9A4208D03B8A07
:10274C001A047B681B68DB699BB213437B6104E052
:10275C007B8A1A04FB8913437B617B6918461C37FF
:10276C00BD4680BC704780B584B000AF78603960DE
:10277C000023FB73786800F05DF80346002B02D051
:10278C000123FB7311E07B681B683A68120C9A6199
:10279C007B681B683A6892B2DA61786800F072F86C
:1027AC000346002B01D00123FB73FB7B184610372B
:1027BC00BD4680BD80B485B000AF78600023FB813E
:1027CC000023BB817B681B681B6AFB817B681B68D1
:1027DC005B6ABB81FB891A04BB8913431846143707
:1027EC00BD4680BC704780B584B000AF786039605E
:1027FC000023FB73786800F01DF80346002B02D011
:10280C000123FB7311E07B681B683A68120C1A6297
:10281C007B681B683A6892B25A62786800F032F8AA
:10282C000346002B01D00123FB73FB7B18461037AA
:10283C00BD4680BD80B584B000AF78600023FB60DE
:10284C00FEF7C0FAF86009E0FEF7BCFA0246FB6836
:10285C00D31AB3F57A7F01D903230FE07B681B6889
:10286C005B6803F02003002BEED07B681B685A6872
:10287C007B681B6842F010025A6000231846103720
:10288C00BD4680BD80B584B000AF78600023FB608E
:10289C007B681B685A687B681B6822F010025A60C0
:1028AC00FEF790FAF86009E0FEF78CFA0246FB6836
:1028BC00D31AB3F57A7F01D9032307E07B681B6831
:1028CC005B6803F02003002BEED000231846103772
:1028DC00BD4680BD80B485B000AF0346FB710023BC
:1028EC00FB6005E0FB680133FB60FB790A3BFB7185
:1028FC00FB79092BF6D8FB68DBB21B01DAB2FB794A
:10290C001343DBB218461437BD4680BC704780B405
:10291C0085B000AF0346FB710023FB60FB791B09FC
:10292C00DBB21A4613469B0013445B00FB60FB7939
:10293C0003F00F03DAB2FB68DBB21344DBB21846C8
:10294C001437BD4680BC704780B586B000AF786048
:10295C00396000237B6100233B610023FB60002373
:10296C00BB607B68DB7B7B617B685B7B3B617B68F3
:10297C009B7BFB600023BB606FE03B69012B11D09C
:10298C003B69032B0ED03B69052B0BD03B69072B06
:10299C0008D03B69082B05D03B690A2B02D03B6958
:1029AC000C2B17D1FB681E2B03D8FB680133FB6083
:1029BC0050E03B690C2B05D03B6901333B61012393
:1029CC00FB6047E001233B610123FB607B69013322
:1029DC007B613FE03B69042B08D03B69062B05D09B
:1029EC003B69092B02D03B690B2B0CD1FB681D2BCF
:1029FC0003D8FB680133FB602CE03B6901333B617E
:102A0C000123FB6026E03B69022B23D1FB681B2BC7
:102A1C0003D8FB680133FB601CE0FB681C2B11D155
:102A2C007B699BB2184600F039F80346002B03D0A3
:102A3C00FB680133FB600DE03B6901333B61012313
:102A4C00FB6007E0FB681D2B04D13B6901333B6144
:102A5C000123FB60BB680133BB60BA683B689A42D8
:102A6C008BD37B69DAB27B68DA733B69DAB27B6849
:102A7C005A73FB68DAB27B689A733B69DBB2FA680B
:102A8C00D2B21946786900F03BF803461A467B68C7
:102A9C001A7300BF1837BD4680BD000080B483B0E8
:102AAC0000AF0346FB80FB8803F003039BB2002BB3
:102ABC0001D000231DE0FB88104AA2FB031252092F
:102ACC00642101FB02F29B1A9BB2002B01D0012363
:102ADC000FE0FB88094AA2FB0312D2094FF4C8711C
:102AEC0001FB02F29B1A9BB2002B01D1012300E0E7
:102AFC00002318460C37BD4680BC70471F85EB5130
:102B0C0080B485B000AF78600B46FB701346BB7089
:102B1C000023BB600023FB607B6803F5FA63BB609A
:102B2C00FB78022B2DD8FA7813465B001344DB009C
:102B3C009B1A2C4AA2FB03235A08BB781A44BB6885
:102B4C001A44BB68013B9B081A44BB68013B2649ED
:102B5C00A1FB03135B09D21ABB68013B2249A1FB01
:102B6C000313DB0913441A1D204BA3FB0213D11AC8
:102B7C0049080B4499080B46DB005B1AD31AFB601F
:102B8C0029E0FA7813465B001344DB009B1A154AC4
:102B9C00A2FB03235A08BB781A44BB681A44BB68CF
:102BAC009B081A44BB681049A1FB03135B09D21A9A
:102BBC00BB680D49A1FB0313DB0913449A1C0B4B97
:102BCC00A3FB0213D11A49080B4499080B46DB00EE
:102BDC005B1AD31AFB60FB68DBB218461437BD4690
:102BEC0080BC7047398EE3381F85EB512549922400
:102BFC0080B487B000AFF860B9607A6000237B6165
:102C0C00074B7B61BB689B007A6913447B617B69D2
:102C1C007A6892B21A6000BF1C37BD4680BC704700
:102C2C00006C004080B485B000AF78603960002340
:102C3C00FB600023BB60084BFB603B689B00FA68A1
:102C4C001344FB60FB681B689BB2BB60BB681846F7
:102C5C001437BD4680BC7047006C0040014B1868AF
:102C6C00704700BF0C00002070B500250C4E0D4CB9
:102C7C00A41BA410A54209D100F034FC00250A4E77
:102C8C000A4CA41BA410A54205D170BD56F82530E2
:102C9C0098470135EEE756F8253098470135F2E7AD
:102CAC000C3600080C3600080C36000810360008EC
:102CBC0003460244934200D1704703F8011BF9E725
:102CCC000EB46FF0004100B59CB01DAB02900690A5
:102CDC00079104910848094953F8042B05910068A1
:102CEC0002A9019300F066F80022029B1A701CB036
:102CFC005DF804EB03B070470C0000200802FFFFE6
:102D0C002DE9F0478E6882469E420C4690469946C5
:102D1C0037D88A8912F4906F31D00223256809695B
:102D2C006F1A656905EB450595FBF3F509F1010390
:102D3C003B449D4238BF1D46530530D5294600F013
:102D4C0037FB064650B90C234FF0FF30CAF8003061
:102D5C00A38943F04003A381BDE8F0873A4621697B
:102D6C0000F0B6FAA38923F4906343F08003A381A7
:102D7C0026613E4426604E466561ED1BA5604E45BE
:102D8C0000D94E4632464146206800F0ACFAA368A2
:102D9C0000209B1BA36023681E442660DCE72A46A8
:102DAC0000F060FB06460028E2D12169504600F095
:102DBC00B3FAC8E72DE9F04F1D468B899DB01F066D
:102DCC0080460C4616460FD50B696BB9402100F0B6
:102DDC00EFFA2060206128B90C23C8F800304FF0BE
:102DEC00FF30C8E0402363610023099320238DF852
:102DFC00293030234FF0010B8DF82A3003953746DC
:102E0C003D4615F8013B0BB1252B3ED1B7EB060A1D
:102E1C000BD05346324621464046FFF771FF013036
:102E2C0000F0A480099B534409933B78002B00F0DD
:102E3C009D8000234FF0FF32CDE9052304930793C7
:102E4C008DF853301A932F46052217F8011B504862
:102E5C0000F030FA049BD0B9D90644BF20228DF87B
:102E6C0053201A0744BF2B228DF853202A782A2A84
:102E7C0015D02F4600200A25079A394611F8013B38
:102E8C00303B092B4DD9B8B10FE02F46B8E7404A7B
:102E9C003D46801A0BFA00F018430490D3E7039ACE
:102EAC00111D12680391002A01DB079204E05242C3
:102EBC0043F00203079204933B782E2B0CD17B78C2
:102ECC002A2B33D1039B02371A1D1B680392002B4C
:102EDC00B8BF4FF0FF3305932E4D032239782846A7
:102EEC0000F0E8F938B14023401B03FA00F0049BD2
:102EFC000137034304933978062227487E1C8DF84A
:102F0C00281000F0D7F9002838D0244B13BB039BB2
:102F1C00073323F0070308330393099B4B440993AE
:102F2C006DE705FB023201200F46A6E700230A25B8
:102F3C00194601370593384610F8012B303A092A07
:102F4C0003D9002BC8D00591C6E705FB012101234D
:102F5C000746F0E703AB00932246114B04A9404609
:102F6C00AFF30080B0F1FF3F8146D6D1A3895B0659
:102F7C003FF535AF09981DB0BDE8F08F03AB00935A
:102F8C002246074B04A9404600F082F8EAE700BF4E
:102F9C00D8350008DE350008E235000800000000D6
:102FAC000D2D00082DE9F04791461F468A680B69E4
:102FBC0006469342B8BF1346C9F8003091F8432037
:102FCC000C46DDF8208012B10133C9F800302368BB
:102FDC00990642BFD9F800300233C9F80030256891
:102FEC0015F0060507D104F1190AE368D9F8002099
:102FFC009B1AAB4229DC94F843302268003318BF8B
:10300C00012392062ED404F1430239463046C047C0
:10301C00013021D02368E56803F00603042B18BFA8
:10302C000025D9F800204FF0000908BFAD1AA3689D
:10303C00226908BF25EAE5759342C4BF9B1AED18B7
:10304C001A344D451AD1002008E001235246394666
:10305C003046C047013003D14FF0FF30BDE8F08758
:10306C000135C2E73020E11881F843005A1C94F86E
:10307C0045102244023382F84310C4E70123224650
:10308C0039463046C0470130E6D009F10109D8E78E
:10309C002DE9F04301F1430C0C46097E85B06E29F5
:1030AC001746064698460C9A00F0B38022D863293E
:1030BC0036D00AD8002900F0B980582900F0838056
:1030CC0004F1420584F8421032E0642901D06929E8
:1030DC00F6D120681368050603F104012AD51B6894
:1030EC001160002B03DA2D225B4284F843206F48D9
:1030FC000A2239E0732900F09D8008D86F2920D06E
:10310C007029DDD1236843F02003236003E0752987
:10311C0017D07829D4D17823654884F8453055E008
:10312C00136804F14205191D1B68116084F84230C4
:10313C0001238CE01B6810F0400F116018BF1BB20C
:10314C00CFE713682568181D1060280601D51B6889
:10315C0002E06806FBD51B886F2914BF0A220822DF
:10316C005248002184F843106568002DA560C0F218
:10317C009580216821F004012160002B3DD1002DA8
:10318C0040F08E806546082A0BD12368DB0708D5F2
:10319C00236962689A42DEBF302305F8013C05F1D1
:1031AC00FF35ACEB05032361CDF800803B4603AA49
:1031BC0021463046FFF7F6FE01304DD14FF0FF307F
:1031CC0005B0BDE8F083394884F8451013682168D0
:1031DC001D1D1B6815600A060BD5CA0744BF41F0BC
:1031EC00200121601BB9226822F0200222601022EB
:1031FC00B7E74D0648BF9BB2EFE76546B3FBF2F16C
:10320C0002FB1133C35C05F8013D0B460029F5D1D7
:10321C00B9E713682568181D6169106028061B68DA
:10322C0001D5196002E06A06FBD5198000236546BA
:10323C002361B9E71368191D11601D6862680021CC
:10324C00284600F037F808B1401B606063682361C2
:10325C00002384F84330A7E723692A4639463046D1
:10326C00C0470130AAD023689B0713D4E068039BA6
:10327C009842B8BF1846A3E701234A463946304660
:10328C00C04701309AD00135E368039A9B1AAB42D0
:10329C00F2DCEBE7002504F11909F5E7002BACD1C2
:1032AC00037804F1420584F842306CE7E9350008F4
:1032BC00FA35000810B5C9B202449042034601D158
:1032CC00002303E01C7801308C42F6D1184610BD67
:1032DC0010B5431E0A44914200D110BD11F8014BA8
:1032EC0003F8014FF7E7884210B501EB020307D84A
:1032FC00421E99420AD011F8014B02F8014FF8E72F
:10330C008342F5D98118D21AD34200D110BD13F8DB
:10331C00014D01F8014DF7E738B50546002943D0BA
:10332C0051F8043C0C1F002BB8BFE41800F0D0F887
:10333C001E4A1368104633B9636014602846BDE812
:10334C00384000F0C6B8A3420BD9216862189342EA
:10335C0001BF1A685B685218226063600460EDE775
:10336C0013465A680AB1A242FAD919685818A042F1
:10337C000BD120680144581882421960DED11068C4
:10338C005268014419605A60D8E702D90C232B60AB
:10339C00D4E7206821188A4201BF116852680918C5
:1033AC00216062605C60C9E738BD00BF90000020FE
:1033BC0070B5CD1C25F0030508350C2D38BF0C2538
:1033CC00002D064601DBA94203D90C2333600020F3
:1033DC0070BD00F07DF8214A1468214691B9204C4B
:1033EC0023681BB9304600F063F82060294630464C
:1033FC0000F05EF8431C24D10C233046336000F0FF
:10340C0068F8E4E70B685B1B18D40B2B0FD90B6027
:10341C00CC18CD50304600F05CF804F10B00231DA5
:10342C0020F00700C31AD3D05A42E250D0E74B68C1
:10343C008C4216BF636013600C46EBE70C46496880
:10344C00CCE7C41C24F00304A04205D0211A30465A
:10345C0000F02EF80130CFD02560DBE79000002083
:10346C0094000020F8B5074614460E4621B9BDE875
:10347C00F8401146FFF79CBF22B9FFF74DFF2546D8
:10348C002846F8BD00F026F8A0420FD22146384657
:10349C00FFF78EFF05460028F2D031462246FFF793
:1034AC0017FF31463846FFF737FFE9E73546E7E7C0
:1034BC0038B50023054C054608462360FDF7D2FBC2
:1034CC00431C02D1236803B12B6038BD20010020BE
:1034DC007047704751F8043C181F002BBCBF0B58A9
:1034EC00C0187047F8B500BFF8BC08BC9E467047C2
:0C34FC00F8B500BFF8BC08BC9E46704745
:10350800253032643A253032643A2530326400007E
:10351800253032642D253032642D253264000000B8
:1035280054494D453A200000444154453A20000092
:1035380054414B45204D45444943494E452025308B
:1035480032640000414C41524D2054494D453A20C7
:10355800253032643A2530326400000052454D4926
:103568004E44455220253032640000002530326434
:103578003A25303264000000000C0140000C014084
:10358800000C0140000C01401000200040008000A9
:1035980002030405060708090A0B0C0D0E0F10108C
:1035A8000102000002030405060708090A0B0C0DB6
:1035B8000E0F1010010200000000000000000000C3
:1035C80001020304060708090000000001020304C1
:1035D800232D302B2000686C4C00656667454647F4
:1035E8000030313233343536373839414243444577
:1035F80046003031323334353637383961626364E6
:0436080065660000F3
:04360C003101000880
:043610000D010008A0
:103614000024F4001000000001000000100000204D
:103624000000000000000000000000000000000096
:103634000000000000000000000000000000000086
:103644000000000000000000000000000000000076
:103654000000000000000000000000000000000066
:103664000000000000000000000000000000000056
:103674000000000000000000000000000000000046
:0400000508000CD50E
:00000001FF
